:10000000BCC00000D6C00000D4C00000D3C00000B7
:10001000D0C00000CEC00000CCC00000CAC00000AC
:10002000C8C00000C6C0000069C20000A1C2000034
:10003000C0C00000BEC00000BCC00000BAC00000CC
:10004000B8C00000B6C00000B4C00000B2C00000DC
:10005000FBC00000AEC00000ACC00000AAC00000A1
:10006000A8C00000A6C00000A4C00000A2C00000FC
:10007000A0C000009EC000009CC000009AC000000C
:1000800098C0000096C0000094C0000092C000001C
:1000900090C000008EC000008CC000008AC000002C
:1000A00088C0000086C0000084C00000000100007D
:1000B000510112000200000E0143000300000A017A
:1000C0000401030904FE000A02030904E400180302
:1000D000030904D6000C0C0330003000300030005F
:1000E000310000001803520046004D002D0046006C
:1000F00053004B00200054004E00430000000A0350
:10010000490041005200550000000403090409029F
:100110004300020100C03209040000010202010094
:100120000524001001052401010104240206052410
:100130000600010705820310004009040100020ABD
:10014000000000070503024000000705840240008C
:10015000001201000202000010C0167A0400010122
:100160000203010001C11201803601813663646916
:100170006E6F70737578585B000011241FBECFEF4F
:10018000DAE0DEBFCDBF11E0A0E0B1E0EEE8F4E1DF
:1001900002C005900D92A637B107D9F711E0A6E786
:1001A000B1E001C01D92A038B107E1F7AED00C94C8
:1001B000450A26CF1F920F920FB60F9211242F934C
:1001C0003F934F935F936F937F938F939F93AF93DF
:1001D000BF93EF93FF93EA98E29A479887E291E002
:1001E00071D32FEF89E698E1215080409040E1F7EC
:1001F00000C00000EA9AFF91EF91BF91AF919F91EB
:100200008F917F916F915F914F913F912F910F90BF
:100210000FBE0F901F901895CF93DF93EC0180E9EC
:10022000F8D28CEA19D380E916D38EEE15D380E983
:10023000F0D28AEA11D381E90ED31FD3888327D362
:100240008983DF91CF9108951F920F920FB60F927D
:1002500011242F933F934F935F936F937F938F93CB
:100260009F93AF93BF93EF93FF93CF93DF9300D010
:10027000CDB7DEB7CE010196CFDF89811F928F9374
:100280008CE291E09F938F930CD30F900F900F907F
:100290000F908A81882319F084E391E002C08CE3F7
:1002A00091E010D3809102018F5F809302019091C1
:1002B00003018917A8F010920201298180910001A1
:1002C000281B332727FD30958091010190E02817E6
:1002D00039071CF084E491E002C082E591E0F2D29B
:1002E0000F900F90DF91CF91FF91EF91BF91AF9160
:1002F0009F918F917F916F915F914F913F912F913E
:100300000F900FBE0F901F901895CF93DF931F9201
:10031000CDB7DEB780E880936100109261008FD086
:100320007894A5D08823E9F3E6D080FFFDCF89E15A
:1003300091E090937D0180937C018BE091E090931C
:100340007B0180937A01569A3F9A5DD252985A9ACD
:1003500080916900806280936900CE0101966C01F2
:1003600088E6E82E81E0F82E0BE611E081E691E0C8
:10037000A9D2DF92CF92FF92EF92D1D22981822F20
:10038000992787FD90959F932F931F930F9389D261
:10039000EA98479A9FEF2DE389E4915020408040EE
:1003A000E1F700C00000E29AEA9A0FB6F894DEBFC7
:1003B0000FBECDBFDBCF90917901992371F09FB72C
:1003C000F89424E02093E90020917701222349F05A
:1003D0002091E80025FD03C09FBF8FEF0895109284
:1003E00077012091E400275E34E04091E80045FD6C
:1003F00012C09FBF9091E400921304C081E08093EB
:100400007701EBCF90917901992339F39FB7F89455
:100410003093E900EACF8093F1008091E80085FDF8
:1004200003C08AE38093E80085E0809378019FBF52
:1004300080E008958091E80080FFFCCF089581E07E
:100440008093D70080EA8093D80082E189BD09B407
:1004500000FEFDCF80E98093D8001092E00010925A
:100460007901109276018CE08093E20008958091EA
:10047000790108959FB7F89480917901882369F0F4
:1004800083E08093E9002BE68091E80085FD09C0B8
:1004900082FF03C02093E800F7CF9FBF8FEF9FEF4D
:1004A00008958091F1002091E80025FD03C02BE61E
:1004B0002093E8009FBF90E008952FB7F8948091B3
:1004C0007901811102C080E010C083E08093E900CF
:1004D0008091F200811109C09091E80092FFF3CF62
:1004E00095FDF1CF9BE69093E8002FBF0895E5DFDF
:1004F0008823E9F3BFCF8091760108951F920F9270
:100500000FB60F9211248F939F938091E100109268
:10051000E10083FF11C01092E90091E09093EB009D
:100520001092EC0092E19093ED0098E09093F0002F
:10053000109279011092760182FF13C080917901A7
:10054000882379F080917801882359F08150809335
:100550007801811106C084E08093E9008AE38093EA
:10056000E8009F918F910F900FBE0F901F901895EC
:100570001F920F920FB60F921124EF92FF920F93DA
:100580001F932F933F934F935F936F937F938F931B
:100590009F93AF93BF93EF93FF93CF93DF931F92FC
:1005A000CDB7DEB71092E9008091E80083FF10C15B
:1005B0009091F1008091F1003091F1002091F100D3
:1005C000E32EF12CF22A0091F1002091F10010E0CD
:1005D000122B2091F1006091F10032EF3093E8008E
:1005E000863009F046C036E08CEA90E0FC01459187
:1005F00054914E155F0539F4FC01329645915491A2
:100600004017510721F00796315081F7E1C0FC01F6
:10061000349645915491FC013696849130E0362B06
:100620002F3F310519F010F02FEF30E0281708F4B4
:10063000822F3EEF9091E800292F2570D9F392FD8B
:10064000CAC0982F813108F090E1FA01292F2223A6
:1006500031F064916093F10021503196F8CF490F49
:10066000511D891B3093E8008111E4CF903111F3C3
:10067000B2C0853049F48EEF8093E800DBDE8E2D2A
:1006800080688093E300A7C0893061F591117DC037
:10069000E092790110927601109278018EEF8093AA
:1006A000E80041E083E691E04093E9009C012F5F80
:1006B0003F4FFC0154915093EB00552361F0F90139
:1006C00024912093EC009C012D5F3F4FFC0132965A
:1006D00084918093ED004F5F453011F0C901E4CF64
:1006E0008EE171C0883049F4903809F04EC0A2DE26
:1006F000809179018093F10044C0813271F4913A84
:1007000009F043C097DEE4E0F1E081918093F100CD
:1007100081E0EB30F807C9F734C0803299F49132A8
:10072000A1F58091E80082FFFCCFE4E0F1E0809148
:10073000F100819381E0EB30F807C9F78BEF8093EC
:10074000E8001FC0823239F4913209F041C0E092D2
:10075000760170DE16C0811118C099836BDE998115
:10076000923851F40093E9008091EB0085FB8827D3
:1007700080F91092E90001C080E08093F1001092AE
:10078000F1008EEF8093E80026C0282F2D7F2130C6
:10079000F9F49230E9F4EF28D9F40F779FEF900F36
:1007A0009430B0F49EEF9093E8000093E90083301A
:1007B00079F089E18093EB0081E090E0002E01C0A8
:1007C000880F0A94EAF78093EA001092EA0003C0C7
:1007D00081E28093EB000F90DF91CF91FF91EF9139
:1007E000BF91AF919F918F917F916F915F914F9149
:1007F0003F912F911F910F91FF90EF900F900FBE9F
:100800000F901F9018951092B9008CE08093B8005B
:10081000089594EA9093BC009091BC0097FFFCCFA0
:100820009091B900987F983021F0903111F081E0DB
:1008300008958093BB0084E88093BC008091BC0045
:1008400087FFFCCF8091B900887F883111F0803418
:1008500071F780E00895DDCF8093BB0084E880933A
:10086000BC008091BC0087FFFCCF9091B900987FBD
:1008700081E0983209F480E0089584EC8093BC0014
:100880008091BC0087FFFCCF8091BB00089584E875
:100890008093BC008091BC0087FFFCCF8091BB009F
:1008A0000895A0E0B0E0E6E5F4E0C8C5FE013596A5
:1008B00061917191AF0180917C0190917D0140D057
:1008C000E2E0D8C50F931F93CF93DF93E0917C01B3
:1008D000F0917D01238121FF1BC0EC0100E010E0BD
:1008E000899160917C0170917D01DB011896ED91F9
:1008F000FC911997882331F00995892B89F30FEF23
:100900001FEFEECF8AE00995892B11F4C80102C0D0
:100910008FEF9FEFDF91CF911F910F910895A0E08E
:10092000B0E0E4E9F4E08AC5FE0135966191719189
:10093000AF0180917A0190917B0134D3E2E09AC5B6
:10094000ACE0B0E0E5EAF4E069C57C016B018A0146
:10095000FC0117821682838181FFB0C1CE0101960E
:100960004C01F7019381F60193FD859193FF8191ED
:100970006F01882309F49EC1853239F493FD859176
:1009800093FF81916F01853221F4B70190E09AD4F1
:10099000E8CF512C312C20E02032A0F48B3269F0CA
:1009A00030F4803259F0833269F420612CC08D32EA
:1009B00039F0803339F4216026C02260246023C0DE
:1009C000286021C027FD27C030ED380F3A3078F479
:1009D00026FF06C0FAE05F9E300D1124532E13C08F
:1009E0008AE0389E300D1124332E20620CC08E32E6
:1009F00021F426FD5FC1206406C08C3611F4206806
:100A000002C0883641F4F60193FD859193FF8191F0
:100A10006F018111C1CF982F9F7D9554933028F499
:100A20000C5F1F4FFFE3F9830DC0833631F083372E
:100A300071F0833509F057C021C0F80180818983A6
:100A40000E5F1F4F44244394512C540114C03801AD
:100A5000F2E06F0E711CF801A080B18026FF03C088
:100A6000652D70E002C06FEF7FEFC5012C87E1D3E9
:100A70002C0183012C852F77222E16C03801F2E03D
:100A80006F0E711CF801A080B18026FF03C0652D98
:100A900070E002C06FEF7FEFC5012C87BFD32C0140
:100AA0002C852068222E830123FC19C0832D90E021
:100AB00048165906A0F4B70180E290E003D43A94B6
:100AC000F5CFF50127FC859127FE81915F01B701E4
:100AD00090E0F8D331103A94F1E04F1A51084114E4
:100AE000510479F7DEC0843611F0893631F5F8010A
:100AF00027FF07C060817181828193810C5F1F4F46
:100B000008C060817181882777FD8095982F0E5FDE
:100B10001F4F2F76B22E97FF09C090958095709544
:100B200061957F4F8F4F9F4F2068B22E2AE030E0B3
:100B3000A40113D4A82EA81843C0853729F42F7E0A
:100B4000B22E2AE030E025C0F22FF97FBF2E8F367B
:100B5000C1F018F4883579F0ADC0803719F08837C6
:100B600021F0A8C02F2F2061B22EB4FE0DC08B2D16
:100B70008460B82E09C024FF0AC09F2F9660B92E4A
:100B800006C028E030E005C020E130E002C020E1EE
:100B900032E0F801B7FE07C06081718182819381E4
:100BA0000C5F1F4F06C06081718180E090E00E5F96
:100BB0001F4FA401D2D3A82EA818FB2DFF77BF2E5C
:100BC000B6FE0BC02B2D2E7FA51450F4B4FE0AC028
:100BD000B2FC08C02B2D2E7E05C07A2C2B2D03C015
:100BE0007A2C01C0752C24FF0DC0FE01EA0DF11D09
:100BF0008081803311F4297E09C022FF06C07394DE
:100C0000739404C0822F867809F0739423FD12C078
:100C100020FF06C05A2C731418F4530C5718732C69
:100C2000731460F4B70180E290E02C874BD3739487
:100C30002C85F6CF731410F4371801C0312C24FF23
:100C400011C0B70180E390E02C873CD32C8522FFB4
:100C500016C021FF03C088E590E002C088E790E05D
:100C6000B7010CC0822F867851F021FD02C080E2CE
:100C700001C08BE227FD8DE2B70190E023D3A514DC
:100C800030F4B70180E390E01DD35A94F8CFAA94D2
:100C9000F401EA0DF11D8081B70190E013D3A1109A
:100CA000F6CF332009F45DCEB70180E290E00AD39D
:100CB0003A94F7CFF7018681978102C08FEF9FEFBB
:100CC0002C96E2E1C7C320FD09C0FC0123FD05C04D
:100CD00022FF02C07383628351834083089544FDE1
:100CE00010C046FD10C0DB01FC01AA0FBB1FEE1FA8
:100CF000FF1F1094D1F76A0F7B1F8E1F9F1F31E0DB
:100D000003C033E001C034E0660F771F881F991FCE
:100D10003150D1F7620F711D811D911D08950F9300
:100D20001F93CF93DF938C01C8018ED2EC0197FD06
:100D300006C061D2892BC1F7B801CE01F5D2CE0130
:100D4000DF91CF911F910F9108958F929F92AF9253
:100D5000CF92DF92EF92FF920F931F93CF93DF9387
:100D6000EC01A62E4A01022F6FD2AC0155274B325F
:100D7000510521F04D32510549F40068AA9411F44F
:100D800080E060C0CE0160D297FDFACF102F1D7FAA
:100D9000302F3073F1F48033E1F4FF24FA94FA0C2D
:100DA00009F43DC0CE0150D297FD39C0382F3F7DA8
:100DB000383549F41264AA94AA9489F1CE0144D238
:100DC00097FF07C02CC006FF02C0126001C012616D
:100DD000AF2CC12CD12C760120ED280F283078F0D3
:100DE00014FF03C0BE01A0D217C02A3040F016FF86
:100DF000F9CF2F7D3FEE320F3630A0F72750412F2D
:100E0000C701B6016CDF6B017C011260AA9451F03E
:100E1000CE011AD297FFE0CF11FD04C0B1CFC12C93
:100E2000D12C760117FF08C0F094E094D094C094C0
:100E3000C11CD11CE11CF11C212FB701A601C4016A
:100E400042DF81E0DF91CF911F910F91FF90EF90F2
:100E5000DF90CF90AF909F908F900895A1E2B0E087
:100E6000E3E3F7E0E0C25C017A018E010F5F1F4F00
:100E7000680180E2D8011D928A95E9F7F501738037
:100E800040E050E0812CB0E0912C81E090E0F9014D
:100E900073FCA59173FEA1918F017A2F9F01A1117F
:100EA00003C080E090E07BC0AE3519F441155105D8
:100EB00059F1E92DF0E0E417F5073CF4AD3569F19F
:100EC000AD3219F4BB2319F103C0B11101C08A2E50
:100ED000E72FE695E695E69586010E0F111DF801C0
:100EE000A72FA7708C0102C0000F111FAA95E2F76F
:100EF000D801B081BA2BB083781559F0781510F469
:100F00007F5FE6CF7150E4CF9924939403C0B1E0A2
:100F100001C0B0E04F5F5F4FBACFBB2319F08E81A5
:100F200080628E83911003C09924939415C0F601BA
:100F3000CE018196208120952193E817F907D1F7FA
:100F4000F3CFE114F10429F0D7018C93F701319626
:100F50007F016150F1F0912CC50169A375D169A1A0
:100F600097FD15C0282F269526952695F601E20FA8
:100F7000F11D208130E0AC014770552702C0359546
:100F800027954A95E2F720FDDCCFB501CDD1911030
:100F900088CFE114F10411F0D7011C92C801A19689
:100FA000EDE05DC24F925F927F928F929F92AF92DF
:100FB000BF92CF92DF92EF92FF920F931F93CF9346
:100FC000DF931F92CDB7DEB78C012B017A01FC01B4
:100FD00017821682A12CF801D380F201D3FC8591EF
:100FE000D3FE8191382F2F01882309F4EEC090E0C1
:100FF000398301D13981892B19F0C80190DEEBCFFB
:10100000353241F4F201D3FC3591D3FE31912F01F9
:10101000353259F4C801398317D1398197FDD3C0CE
:101020003817C9F2B80180D1D0C03A3241F4D3FCAC
:101030003591D3FE31912F01BB24B39401C0B12C63
:10104000712C20ED230F2A3088F4FB2DF260BF2E87
:10105000672D70E080E090E040E241DE762EF20104
:10106000D3FC3591D3FE31912F01EBCFB1FE03C0FC
:10107000711003C0AAC077247A94383619F03C3630
:1010800061F014C0F201D3FC3591D3FE31912F01F0
:10109000383661F4FB2DF860BF2E8B2D8460B82E9E
:1010A000F201D3FC3591D3FE31912F01332309F4A2
:1010B0008CC0632F70E08DE691E03983A4D0398134
:1010C000892B09F482C0B0FC07C0F701C080D18031
:1010D000C70102967C0102C0C12CD12C3E3649F4D6
:1010E000F8014681578160E070E02B2DC601EBDDF1
:1010F00072CF333699F4B1FC02C077247394C801DF
:10110000A3D097FD60C0C114D10429F0F6018083FB
:10111000C60101966C017A9491F751C03B3551F4A8
:101120009201A601672DC80199DE2C01009709F0F4
:1011300046C040C0C8013983F2DD398197FD43C004
:101140003F3651F128F4343619F1393661F128C0AF
:10115000333769F03537E1F023C0C114D10429F0E9
:10116000F6018082C60101966C017A9459F0C8019B
:101170006BD04C0197FD06C03ED0892B71F3B801AE
:10118000C401D2D0C114D104D1F0F601108217C02D
:10119000FB2DF062BF2E07C08B2D8061B82E03C0DF
:1011A0009B2D9064B92E2B2DA601672DC801CDDD96
:1011B000811105C0F8018381807329F406C0B0FC59
:1011C0000ACFA39408CFAA2019F08A2D90E002C07C
:1011D0008FEF9FEF0F90DF91CF911F910F91FF90B5
:1011E000EF90DF90CF90BF90AF909F908F907F90C7
:1011F0005F904F90089591110EC1803219F089507F
:101200008550D0F70895FC010590061621F00020C6
:10121000D9F7C00108953197CF010895FC010590D9
:10122000615070400110D8F7809590958E0F9F1FE8
:101230000895FC016150704001900110D8F780952D
:1012400090958E0F9F1F0895CF93DF93EC012B8114
:1012500020FF33C026FF0AC02F7B2B838E819F8106
:1012600001969F838E838A8190E029C022FF0FC060
:10127000E881F9818081992787FD9095009719F47D
:1012800020622B831AC03196F983E8830EC0EA8569
:10129000FB85099597FF09C02B81019611F480E128
:1012A00001C080E2822B8B8308C02E813F812F5F9B
:1012B0003F4F3F832E83992702C08FEF9FEFDF912F
:1012C000CF9108950F931F93CF93DF93182F092F7A
:1012D000EB018B8181FD03C08FEF9FEF20C082FF68
:1012E00010C04E815F812C813D81421753077CF4F1
:1012F000E881F9819F012F5F3F4F39832883108355
:1013000006C0E885F985812F0995892B29F72E815B
:101310003F812F5F3F4F3F832E83812F902FDF919F
:10132000CF911F910F910895FB01238120FF12C0DF
:1013300026FD10C08F3F3FEF930761F082832F7D22
:101340002064238326813781215031093783268306
:10135000992708958FEF9FEF0895FA01AA27283063
:1013600051F1203181F1E8946F936E7F6E5F7F4F72
:101370008F4F9F4FAF4FB1E03ED0B4E03CD0670FEE
:10138000781F891F9A1FA11D680F791F8A1F911D41
:10139000A11D6A0F711D811D911DA11D20D009F491
:1013A00068943F912AE0269F11243019305D3193D3
:1013B000DEF6CF010895462F4770405D4193B3E0BC
:1013C0000FD0C9F7F6CF462F4F70405D4A3318F063
:1013D000495D31FD4052419302D0A9F7EACFB4E014
:1013E000A6959795879577956795BA95C9F70097CC
:1013F0006105710508959B01AC010A2E069457956D
:10140000479537952795BA95C9F7620F731F841FC3
:10141000951FA01D08959927882708952F923F9220
:101420004F925F926F927F928F929F92AF92BF92F4
:10143000CF92DF92EF92FF920F931F93CF93DF93A0
:10144000CDB7DEB7CA1BDB0B0FB6F894DEBF0FBEFD
:10145000CDBF09942A88398848885F846E847D844A
:101460008C849B84AA84B984C884DF80EE80FD804C
:101470000C811B81AA81B981CE0FD11D0FB6F894C2
:0E148000DEBF0FBECDBFED010895F894FFCF83
:10148E001002000600E1000000000800000001004C
:10149E0000000000007702000000000002000000C3
:1014AE0000DB0100000000696E740D0074656D7044
:1014BE00202575002E3520C2B0430D00202020C2FD
:1014CE00B0430D00616767726567617465206F6E6A
:1014DE000D00616767726567617465206F66660DE2
:1014EE000073686166740D0025640073686166742C
:0614FE002025640D0A0028
:00000001FF
