:10000000B6C00000CFC00000CDC00000CBC00000D3
:10001000C9C00000C7C00000C5C00000C3C00000C8
:10002000C1C00000BFC000009CC10000D4C10000DE
:10003000B9C00000B7C00000B5C00000B3C00000E8
:10004000B1C00000AFC00000ADC00000ABC00000F8
:10005000A9C00000A7C00000A5C00000A3C0000008
:10006000A1C000009FC000009DC000009BC0000018
:1000700099C0000097C0000095C0000093C0000028
:1000800091C000008FC000008DC000008BC0000038
:1000900089C0000087C0000085C0000083C0000048
:1000A00081C000007FC000007DC000000001000092
:1000B000510112000200000E0143000300000A017A
:1000C0000401030904FE000A02030904E400180302
:1000D000030904D6000C0C0330003000300030005F
:1000E000310000001803520046004D002D0046006C
:1000F00053004B00200054004E00430000000A0350
:10010000490041005200550000000403090409029F
:100110004300020100C03209040000010202010094
:100120000524001001052401010104240206052410
:100130000600010705820310004009040100020ABD
:10014000000000070503024000000705840240008C
:10015000001201000202000010C0167A0400010122
:100160000203010001C11201803601813600112411
:100170001FBECFEFDAE0DEBFCDBF11E0A0E0B1E0FF
:10018000EEE6FCE002C005900D92AE33B107D9F760
:1001900011E0AEE3B1E001C01D92A834B107E1F770
:1001A00002D063C52DCF80E880936100109261007A
:1001B000BAD07894D0D08823E9F3D0D080FFFDCF97
:1001C00085E191E0909345018093440187E091E0BF
:1001D0009093430180934201569A48D2D12CC3E2B6
:1001E000D1E004E311E08BE2E82E81E0F82EDD207F
:1001F00019F05E98D12C03C05E9ADD24D39480E977
:100200003BD28CEA5CD280E959D28EEE58D280E99A
:1002100033D28AEA54D281E951D262D21F928F93AB
:10022000DF93CF9371D266D20F900F900F900F9003
:10023000882319F0FF92EF9202C01F930F9364D2AC
:100240000F900F909FEF23ED80E39150204080406E
:10025000E1F700C00000CBCF9FB7F8948091410137
:10026000882369F083E08093E9002BE68091E80021
:1002700085FD09C082FF03C02093E800F7CF9FBF30
:100280008FEF9FEF08958091F1002091E80025FD08
:1002900003C02BE62093E8009FBF90E00895909163
:1002A0004101992371F09FB7F89424E02093E9006D
:1002B00020913F01222349F02091E80025FD03C051
:1002C0009FBF8FEF089510923F012091E400275EB9
:1002D00034E04091E80045FD12C09FBF9091E400DA
:1002E000921304C081E080933F01EBCF90914101D4
:1002F000992339F39FB7F8943093E900EACF8093BC
:10030000F1008091E80085FD03C08AE38093E80056
:1003100085E0809340019FBF80E008958091E800D0
:1003200080FFFCCF089581E08093D70080EA80931E
:10033000D80082E189BD09B400FEFDCF80E9809339
:10034000D8001092E0001092410110923E018CE022
:100350008093E200089580914101089580913E01CB
:1003600008951F920F920FB60F9211248F939F93AF
:100370008091E1001092E10083FF11C01092E9002A
:1003800091E09093EB001092EC0092E19093ED00DD
:1003900098E09093F0001092410110923E0182FF8C
:1003A00013C080914101882379F080914001882316
:1003B00059F0815080934001811106C084E0809300
:1003C000E9008AE38093E8009F918F910F900FBE20
:1003D0000F901F9018951F920F920FB60F92112435
:1003E000EF92FF920F931F932F933F934F935F933F
:1003F0006F937F938F939F93AF93BF93EF93FF93ED
:10040000CF93DF931F92CDB7DEB71092E9008091B2
:10041000E80083FF10C19091F1008091F1003091CC
:10042000F1002091F100E32EF12CF22A0091F1006D
:100430002091F10010E0122B2091F1006091F10069
:1004400032EF3093E800863009F046C036E08CEA9F
:1004500090E0FC01459154914E155F0539F4FC0183
:100460003296459154914017510721F0079631502B
:1004700081F7E1C0FC01349645915491FC01369618
:10048000849130E0362B2F3F310519F010F02FEF1B
:1004900030E0281708F4822F3EEF9091E800292FD2
:1004A0002570D9F392FDCAC0982F813108F090E1F0
:1004B000FA01292F222331F064916093F100215039
:1004C0003196F8CF490F511D891B3093E8008111F7
:1004D000E4CF903111F3B2C0853049F48EEF8093B0
:1004E000E8001CDF8E2D80688093E300A7C0893070
:1004F00061F591117DC0E092410110923E01109290
:1005000040018EEF8093E80041E083E691E0409364
:10051000E9009C012F5F3F4FFC0154915093EB0089
:10052000552361F0F90124912093EC009C012D5F8B
:100530003F4FFC01329684918093ED004F5F453030
:1005400011F0C901E4CF8EE171C0883049F49038D0
:1005500009F04EC0E3DE809141018093F10044C078
:10056000813271F4913A09F043C0D8DEE0E0F1E065
:1005700081918093F10081E0E730F807C9F734C03A
:10058000803299F49132A1F58091E80082FFFCCF8E
:10059000E0E0F1E08091F100819381E0E730F8073D
:1005A000C9F78BEF8093E8001FC0823239F4913293
:1005B00009F041C0E0923E01B1DE16C0811118C0C1
:1005C0009983ACDE9981923851F40093E9008091CF
:1005D000EB0085FB882780F91092E90001C080E0DC
:1005E0008093F1001092F1008EEF8093E80026C016
:1005F000282F2D7F2130F9F49230E9F4EF28D9F437
:100600000F779FEF900F9430B0F49EEF9093E80037
:100610000093E900833079F089E18093EB0081E079
:1006200090E0002E01C0880F0A94EAF78093EA0058
:100630001092EA0003C081E28093EB000F90DF91FB
:10064000CF91FF91EF91BF91AF919F918F917F914A
:100650006F915F914F913F912F911F910F91FF905B
:10066000EF900F900FBE0F901F9018951092B90049
:100670008CE08093B800089594EA9093BC00909128
:10068000BC0097FFFCCF9091B900987F983021F083
:10069000903111F081E008958093BB0084E880934D
:1006A000BC008091BC0087FFFCCF8091B900887F9F
:1006B000883111F0803471F780E00895DDCF8093A8
:1006C000BB0084E88093BC008091BC0087FFFCCF16
:1006D0009091B900987F81E0983209F480E0089504
:1006E00084EC8093BC008091BC0087FFFCCF80919C
:1006F000BB00089584E88093BC008091BC0087FF14
:10070000FCCF8091BB000895A0E0B0E0E9E8F3E001
:1007100085C2FE01359661917191AF0180914401CE
:100720009091450102D0E2E095C2ACE0B0E0EAE988
:10073000F3E064C27C016B018A01FC01178216821E
:10074000838181FFB0C1CE0101964C01F7019381F5
:10075000F60193FD859193FF81916F01882309F440
:100760009EC1853239F493FD859193FF81916F018C
:10077000853221F4B70190E0B1D1E8CF512C312C72
:1007800020E02032A0F48B3269F030F4803259F04E
:10079000833269F420612CC08D3239F0803339F412
:1007A000216026C02260246023C0286021C027FD6C
:1007B00027C030ED380F3A3078F426FF06C0FAE053
:1007C0005F9E300D1124532E13C08AE0389E300DE9
:1007D0001124332E20620CC08E3221F426FD5FC11D
:1007E000206406C08C3611F4206802C0883641F4BB
:1007F000F60193FD859193FF81916F018111C1CF26
:10080000982F9F7D9554933028F40C5F1F4FFFE382
:10081000F9830DC0833631F0833771F0833509F0E9
:1008200057C021C0F801808189830E5F1F4F442487
:100830004394512C540114C03801F2E06F0E711C26
:10084000F801A080B18026FF03C0652D70E002C0D2
:100850006FEF7FEFC5012C8736D12C0183012C85EA
:100860002F77222E16C03801F2E06F0E711CF801AE
:10087000A080B18026FF03C0652D70E002C06FEF3D
:100880007FEFC5012C8714D12C012C852068222EE6
:10089000830123FC19C0832D90E048165906A0F46B
:1008A000B70180E290E01AD13A94F5CFF50127FC28
:1008B000859127FE81915F01B70190E00FD1311042
:1008C0003A94F1E04F1A51084114510479F7DEC00F
:1008D000843611F0893631F5F80127FF07C06081B1
:1008E0007181828193810C5F1F4F08C0608171818B
:1008F000882777FD8095982F0E5F1F4F2F76B22E99
:1009000097FF09C090958095709561957F4F8F4FA7
:100910009F4F2068B22E2AE030E0A40111D1A82E0A
:10092000A81843C0853729F42F7EB22E2AE030E084
:1009300025C0F22FF97FBF2E8F36C1F018F488350D
:1009400079F0ADC0803719F0883721F0A8C02F2F7B
:100950002061B22EB4FE0DC08B2D8460B82E09C06C
:1009600024FF0AC09F2F9660B92E06C028E030E011
:1009700005C020E130E002C020E132E0F801B7FE1E
:1009800007C060817181828193810C5F1F4F06C017
:100990006081718180E090E00E5F1F4FA401D0D094
:1009A000A82EA818FB2DFF77BF2EB6FE0BC02B2D4F
:1009B0002E7FA51450F4B4FE0AC0B2FC08C02B2D43
:1009C0002E7E05C07A2C2B2D03C07A2C01C0752CED
:1009D00024FF0DC0FE01EA0DF11D8081803311F46A
:1009E000297E09C022FF06C07394739404C0822F2D
:1009F000867809F0739423FD12C020FF06C05A2C9C
:100A0000731418F4530C5718732C731460F4B70153
:100A100080E290E02C8762D073942C85F6CF73141B
:100A200010F4371801C0312C24FF11C0B70180E346
:100A300090E02C8753D02C8522FF16C021FF03C0E5
:100A400088E590E002C088E790E0B7010CC0822FF3
:100A5000867851F021FD02C080E201C08BE227FDC3
:100A60008DE2B70190E03AD0A51430F4B70180E3ED
:100A700090E034D05A94F8CFAA94F401EA0DF11D15
:100A80008081B70190E02AD0A110F6CF332009F47D
:100A90005DCEB70180E290E021D03A94F7CFF70124
:100AA0008681978102C08FEF9FEF2C96E2E1C2C052
:100AB000FC010590615070400110D8F78095909529
:100AC0008E0F9F1F0895FC0161507040019001102E
:100AD000D8F7809590958E0F9F1F08950F931F93C1
:100AE000CF93DF93182F092FEB018B8181FD03C07A
:100AF0008FEF9FEF20C082FF10C04E815F812C815D
:100B00003D81421753077CF4E881F9819F012F5FF3
:100B10003F4F39832883108306C0E885F985812FEC
:100B20000995892B29F72E813F812F5F3F4F3F8306
:100B30002E83812F902FDF91CF911F910F910895D8
:100B4000FA01AA27283051F1203181F1E8946F93FE
:100B50006E7F6E5F7F4F8F4F9F4FAF4FB1E03ED0A4
:100B6000B4E03CD0670F781F891F9A1FA11D680F42
:100B7000791F8A1F911DA11D6A0F711D811D911D75
:100B8000A11D20D009F468943F912AE0269F1124EA
:100B90003019305D3193DEF6CF010895462F47704E
:100BA000405D4193B3E00FD0C9F7F6CF462F4F70A9
:100BB000405D4A3318F0495D31FD4052419302D007
:100BC000A9F7EACFB4E0A6959795879577956795AD
:100BD000BA95C9F700976105710508959B01AC01AD
:100BE0000A2E06945795479537952795BA95C9F7D4
:100BF000620F731F841F951FA01D08952F923F92AF
:100C00004F925F926F927F928F929F92AF92BF921C
:100C1000CF92DF92EF92FF920F931F93CF93DF93C8
:100C2000CDB7DEB7CA1BDB0B0FB6F894DEBF0FBE25
:100C3000CDBF09942A88398848885F846E847D8472
:100C40008C849B84AA84B984C884DF80EE80FD8074
:100C50000C811B81AA81B981CE0FD11D0FB6F894EA
:0E0C6000DEBF0FBECDBFED010895F894FFCFAB
:100C6E0000E100000000080000000100000000008C
:100C7E00002C01000000000002000000004F0100E7
:100C8E0000000074656D70202575002E3520C2B0F1
:0E0C9E00430A0D00202020C2B0430A0D0000C2
:00000001FF
